:020000040000fa
:080000000002040000000000f2
:020000040000fa
:04000800fe020000f4
:020000040000fa
:04000c0040030000ad
:020000040000fa
:040010008003000069
:020000040000fa
:040014001e030000c7
:020000040000fa
:040018006003000081
:020000040000fa
:04001c0010040000cc
:020000040000fa
:04002000a003000039
:020000040000fa
:0400240010040000c4
:020000040000fa
:0400280010040000c0
:020000040000fa
:04002c00da030000f3
:020000040000fa
:0400300010040000b8
:020000040000fa
:0400340010040000b4
:020000040000fa
:0400380010040000b0
:020000040000fa
:04003c0010040000ac
:020000040000fa
:0400400010040000a8
:020000040000fa
:0400440010040000a4
:020000040000fa
:0400480010040000a0
:020000040000fa
:04004c00100400009c
:020000040000fa
:040050001004000098
:020000040000fa
:040054001004000094
:020000040000fa
:040058001004000090
:020000040000fa
:04005c00100400008c
:020000040000fa
:040060001004000088
:020000040000fa
:040064001004000084
:020000040000fa
:040068001004000080
:020000040000fa
:04006c00100400007c
:020000040000fa
:040070001004000078
:020000040000fa
:040074001004000074
:020000040000fa
:040078001004000070
:020000040000fa
:04007c00100400006c
:020000040000fa
:040080001004000068
:020000040000fa
:040084001004000064
:020000040000fa
:040088001004000060
:020000040000fa
:04008c00100400005c
:020000040000fa
:040090001004000058
:020000040000fa
:040094001004000054
:020000040000fa
:040098001004000050
:020000040000fa
:04009c00100400004c
:020000040000fa
:0400a0001004000048
:020000040000fa
:0400a4001004000044
:020000040000fa
:0400a8001004000040
:020000040000fa
:0400ac00100400003c
:020000040000fa
:0400b0001004000038
:020000040000fa
:0400b4001004000034
:020000040000fa
:0400b8001004000030
:020000040000fa
:0400bc00100400002c
:020000040000fa
:0400c0001004000028
:020000040000fa
:0400c4001004000024
:020000040000fa
:0400c8001004000020
:020000040000fa
:0400cc00100400001c
:020000040000fa
:0400d0001004000018
:020000040000fa
:0400d4001004000014
:020000040000fa
:0400d8001004000010
:020000040000fa
:0400dc00100400000c
:020000040000fa
:0400e0001004000008
:020000040000fa
:0400e4001004000004
:020000040000fa
:0400e8001004000000
:020000040000fa
:0400ec0010040000fc
:020000040000fa
:0400f00010040000f8
:020000040000fa
:0400f40010040000f4
:020000040000fa
:0400f80010040000f0
:020000040000fa
:0400fc0010040000ec
:020000040000fa
:0401000010040000e7
:020000040000fa
:0401040010040000e3
:020000040000fa
:0401080010040000df
:020000040000fa
:04010c0010040000db
:020000040000fa
:0401100010040000d7
:020000040000fa
:0401140010040000d3
:020000040000fa
:0401180010040000cf
:020000040000fa
:04011c0010040000cb
:020000040000fa
:0401200010040000c7
:020000040000fa
:0401240010040000c3
:020000040000fa
:0401280010040000bf
:020000040000fa
:04012c0010040000bb
:020000040000fa
:0401300010040000b7
:020000040000fa
:0401340010040000b3
:020000040000fa
:0401380010040000af
:020000040000fa
:04013c0010040000ab
:020000040000fa
:0401400010040000a7
:020000040000fa
:0401440010040000a3
:020000040000fa
:04014800100400009f
:020000040000fa
:04014c00100400009b
:020000040000fa
:040150001004000097
:020000040000fa
:040154001004000093
:020000040000fa
:04015800100400008f
:020000040000fa
:04015c00100400008b
:020000040000fa
:040160001004000087
:020000040000fa
:040164001004000083
:020000040000fa
:04016800100400007f
:020000040000fa
:04016c00100400007b
:020000040000fa
:040170001004000077
:020000040000fa
:040174001004000073
:020000040000fa
:04017800100400006f
:020000040000fa
:04017c00100400006b
:020000040000fa
:040180001004000067
:020000040000fa
:040184001004000063
:020000040000fa
:04018800100400005f
:020000040000fa
:04018c00100400005b
:020000040000fa
:040190001004000057
:020000040000fa
:040194001004000053
:020000040000fa
:04019800100400004f
:020000040000fa
:04019c00100400004b
:020000040000fa
:0401a0001004000047
:020000040000fa
:0401a4001004000043
:020000040000fa
:0401a800100400003f
:020000040000fa
:0401ac00100400003b
:020000040000fa
:0401b0001004000037
:020000040000fa
:0401b4001004000033
:020000040000fa
:0401b800100400002f
:020000040000fa
:0401bc00100400002b
:020000040000fa
:0401c0001004000027
:020000040000fa
:0401c4001004000023
:020000040000fa
:0401c800100400001f
:020000040000fa
:0401cc00100400001b
:020000040000fa
:0401d0001004000017
:020000040000fa
:0401d4001004000013
:020000040000fa
:0401d800100400000f
:020000040000fa
:0401dc00100400000b
:020000040000fa
:0401e0001004000007
:020000040000fa
:0401e4001004000003
:020000040000fa
:0401e80010040000ff
:020000040000fa
:0401ec0010040000fb
:020000040000fa
:0401f00010040000f7
:020000040000fa
:0401f40010040000f3
:020000040000fa
:0401f80010040000ef
:020000040000fa
:0401fc0010040000eb
:020000040000fa
:0402000010040000e6
:020000040000fa
:0402040010040000e2
:020000040000fa
:0402080010040000de
:020000040000fa
:04020c0010040000da
:020000040000fa
:0402100010040000d6
:020000040000fa
:0402140010040000d2
:020000040000fa
:0402180010040000ce
:020000040000fa
:04021c0010040000ca
:020000040000fa
:0402200010040000c6
:020000040000fa
:0402240010040000c2
:020000040000fa
:0402280010040000be
:020000040000fa
:04022c0010040000ba
:020000040000fa
:0402300010040000b6
:020000040000fa
:0402340010040000b2
:020000040000fa
:0402380010040000ae
:020000040000fa
:04023c0010040000aa
:020000040000fa
:0402400010040000a6
:020000040000fa
:0402440010040000a2
:020000040000fa
:04024800100400009e
:020000040000fa
:04024c00100400009a
:020000040000fa
:040250001004000096
:020000040000fa
:040254001004000092
:020000040000fa
:04025800100400008e
:020000040000fa
:04025c00100400008a
:020000040000fa
:040260001004000086
:020000040000fa
:040264001004000082
:020000040000fa
:04026800100400007e
:020000040000fa
:04026c00100400007a
:020000040000fa
:040270001004000076
:020000040000fa
:040274001004000072
:020000040000fa
:04027800100400006e
:020000040000fa
:04027c00100400006a
:020000040000fa
:040280001004000066
:020000040000fa
:040284001004000062
:020000040000fa
:04028800100400005e
:020000040000fa
:04028c00100400005a
:020000040000fa
:040290001004000056
:020000040000fa
:040294001004000052
:020000040000fa
:04029800100400004e
:020000040000fa
:04029c00100400004a
:020000040000fa
:0402a0001004000046
:020000040000fa
:0402a4001004000042
:020000040000fa
:0402a800100400003e
:020000040000fa
:0402ac00100400003a
:020000040000fa
:0402b0001004000036
:020000040000fa
:0402b4001004000032
:020000040000fa
:0402b800100400002e
:020000040000fa
:0402bc00100400002a
:020000040000fa
:0402c0001004000026
:020000040000fa
:0402c4001004000022
:020000040000fa
:0402c800100400001e
:020000040000fa
:0402cc00100400001a
:020000040000fa
:0402d0001004000016
:020000040000fa
:0402d4001004000012
:020000040000fa
:0402d800100400000e
:020000040000fa
:0402dc00100400000a
:020000040000fa
:0402e0001004000006
:020000040000fa
:0402e4001004000002
:020000040000fa
:0402e80010040000fe
:020000040000fa
:0402ec0010040000fa
:020000040000fa
:0402f00010040000f6
:020000040000fa
:0402f40010040000f2
:020000040000fa
:0402f80010040000ee
:020000040000fa
:0402fc0010040000ea
:020000040000fa
:0403000010040000e5
:020000040000fa
:0403040010040000e1
:020000040000fa
:0403080010040000dd
:020000040000fa
:04030c0010040000d9
:020000040000fa
:0403100010040000d5
:020000040000fa
:0403140010040000d1
:020000040000fa
:0403180010040000cd
:020000040000fa
:04031c0010040000c9
:020000040000fa
:0403200010040000c5
:020000040000fa
:0403240010040000c1
:020000040000fa
:0403280010040000bd
:020000040000fa
:04032c0010040000b9
:020000040000fa
:0403300010040000b5
:020000040000fa
:0403340010040000b1
:020000040000fa
:10040000cf0221000eff26000e0188000000000030
:10041000000020000000e000020032000001200087
:100420002002880014000700ff0007000000e00021
:1004300003003a006079200001002000020037002c
:100440000000200001002000810f70000100320038
:100450000f000700000020000000e0000200320052
:1004600000000200000000009006020000000000f2
:100470000040da000000fe00200020000000e00044
:1004800002003200100020009001880000000600e9
:10049000a1028800800478000000eb001f003700f4
:1004a000e284440054a0b4009905ba00e2844400f8
:1004b00054a0b4009906ba00e284440054a0b400e9
:1004c0000006eb00476fde00fd07b200ae018800ba
:1004d000636ce10003003a000ad801000000eb0061
:1004e0000e003700606ce10008003a00004deb00a0
:1004f0000a05e800020039003420ec000af0a000f0
:100500008b05e900f9ff3e00040037006168e10057
:10051000010032000086eb000b00070019c7ba008b
:100520001905ba000e04e00003003a000a00e000da
:10053000dbff3a0000000600fe07b200ae028800b2
:100540008a047800f5ff37000cd0a300e20f4d00bd
:100550001c00390089027800354dba000a05e80010
:10056000020039003420ec000af0a0008b05e900fd
:100570000f003200254dba000a05e80002003900dc
:100580003420ec000af0a0008b05e90008003200de
:100590000c00e0000600320015cdba000a05e800a4
:1005a000020039003420ec000af0a0008b05e900bd
:1005b0008984e80054a0b4000b00e000e2ff3a0098
:1005c000000006009902ba00055d78008b05e9007d
:1005d000f7ff3200c82ade00055d78008b05e900d0
:1005e000f3ff32000c00e000f1ff320019ddba0029
:1005f000eeff370050060400000000003600f8004f
:10060000809fbe00829fbe00849fbe00869fbe006a
:100610000000fa00c028a9000000eb0062020700f9
:100620000080fa004f03be004f02be004f01be0023
:100630004f00be003600f900004006003600f8000a
:10064000809fbe00829fbe00849fbe00869fbe002a
:100650000000fa0059020700c048a900100020005d
:10066000510207000080fa004f03be004f02be0097
:100670004f01be004f00be003600f90000400600ea
:100680003600f800809fbe00829fbe00849fbe009f
:10069000869fbe000000fa00c068a900200020006c
:1006a000410207000080fa004f03be004f02be0067
:1006b0004f01be004f00be003600f90000400600aa
:1006c0003600f800809fbe00829fbe00849fbe005f
:1006d000869fbe000000fa00c088a90030002000fc
:1006e000310207000080fa004f03be004f02be0037
:1006f0004f01be004f00be003600f900004006006a
:100700003600f800809fbe00829fbe00849fbe001e
:10071000869fbe000000fa00c608a90070002000f5
:10072000210207000080fa004f03be004f02be0006
:100730004f01be004f00be003600f9000040060029
:100740003600f800809fbe00829fbe00849fbe00de
:10075000869fbe000000fa002146800000102000a5
:10076000008060000000e00003003200c508a9001e
:10077000c00020000c0207002046800070006000ce
:100780000000e00003003200c488a900a00020009f
:100790000502070020468000610060000000e000c4
:1007a00003003200c408a900b0002000fe010700c9
:1007b000ffff37003600f800809fbe00829fbe001a
:1007c000849fbe00869fbe000000fa00408080002b
:1007d0000000e000020032004080800000000100c4
:1007e000b0022100104078008040e800b0022100f3
:1007f00001487800a002210011c0b3000148780030
:100800000028a9000080fa004f03be004f02be007e
:100810004f01be004f00be003600f9000040060048
:0c0820000040da000000fe0000000500af
:020000040000fa
:10082c000000fa00007c80000080fa000000060046
:10083c000200fa00faff0700000f78001e00780093
:10084c00240007000004e000020032000000280031
:10085c00710007001e0078002a0007000004e00069
:10086c0002003200000024006b0007001e0078001c
:10087c00320007000004e0000200320000202000db
:10088c00650007001e0078003a0007000004e00035
:10089c0002003200000820005f0007001e007800f4
:1008ac00420007000004e0000200320000042000b7
:1008bc00590007001e0078004a0007000004e00001
:1008cc000200320000012000530007000080fa00f3
:1008dc00000006000400fa00100798000040eb002e
:1008ec00004f78001e0090000000e00002003d0068
:1008fc0010c0b300004f78001e4078000080fa0052
:10090c00000006000400fa00100798000040eb00fd
:10091c00004f78009e0090000000240000806000d2
:10092c000000e0000200320010c0b300004f78005d
:10093c001e4078000080fa00000006000400fa0057
:10094c00100798000040eb00004f78009e009000cc
:10095c0000202000008060000000e0000200320057
:10096c0010c0b300004f78001e4078000080fa00e1
:10097c00000006000400fa00100798000040eb008d
:10098c00004f78009e00900000082000008060005e
:10099c000000e0000200320010c0b300004f7800ed
:1009ac001e4078000080fa00000006000400fa00e7
:1009bc00100798000040eb00004f78009e0090005c
:1009cc0000042000008060000000e0000200320003
:1009dc0010c0b300004f78001e4078000080fa0071
:1009ec00000006000400fa00100798000040eb001d
:1009fc00004f78001e009000700060000000e000c6
:100a0c000200320010c0b300004f78001e40780086
:100a1c000080fa00000006000200fa00000f7800c7
:100a2c009e80ea00007c800000806000007c8800d2
:100a3c000080fa00000006000000fa00802fef0092
:100a4c000080fa00000006000000fa000421ef000c
:100a5c0010a1270040088800000228000008880028
:100a6c00408080000000e00002003a000065200099
:100a7c00240007000028a9002028a800a0022100bb
:100a8c008040eb00014878000080fa00000006006e
:100a9c000200fa00000f78009e00780041088800e0
:100aac00a00221008040eb00014878000080fa0091
:100abc00000006000000fa00400880000080fa00e8
:100acc00000006000200fa00000f78009e0078007b
:100adc0021088800a00221008040eb00014878002a
:100aec000080fa00000006000000fa0020088000d8
:100afc000080fa00000006000000fa000080fa00f6
:100b0c00000006000200fa00000f78002028a9005f
:100b1c009e007800418088002028a8000080fa0000
:100b2c00000006000000fa00a00221008040eb004b
:100b3c00014878002028a80001e1a8000080fa00f4
:100b4c00000006000000fa0001e1a9002028a9001d
:100b5c000080fa00000006000200fa00a00221004a
:100b6c00104f78001e4078000004e00003003200b3
:100b7c00a00221008040eb00014878001e40780064
:100b8c000080fa00000006000000fa00b00221000c
:100b9c00104078000080fb000080fa000000060086
:100bac000000fa00b00221008040eb000148780000
:100bbc000080fa00000006000000fa00100023007c
:100bcc00307c880060092000407c88008c2fef006e
:100bdc0010042000507c880010102000707c8800cd
:100bec0060092000807c880010042000907c880024
:100bfc009a2fef00b82fef00ba2fef00be2fef00a7
:100c0c00002def00a02fef00a42fef00a62fef0078
:100c1c00a82fef00aa2fef00ae2fef00b02fef00a0
:100c2c00b22fef007200200080072000a1092000e5
:100c3c0053f8200080497800814978008249780077
:100c4c000001eb00600420007105200043f8200037
:100c5c008049780081497800824978000080fa0048
:100c6c00000006000000fa00707c8000ee800a0094
:100c7c00000000000080fb0000f0a7000000ea006c
:100c8c000000ea004f00de00004078000080fa000f
:100c9c00000006000000fa001000200020808800f0
:100cac000080fa00000006000000fa0010808000ae
:100cbc000000e00006003a00762eef0076cea80089
:100ccc001000200000808800100020001080880098
:100cdc0010808000e10f50000c003a000080800072
:100cec00b0738800401f200049000700008080007e
:100cfc000000400000808800008080000000e000c0
:100d0c0002003a0010002000008088000080fa00e9
:100d1c00000006000000fa00770007000100370011
:100d2c0000000000a1738000002020000080600003
:100d3c000000e00002003a00dbff0700f9ff37007b
:100d4c00208080000000e000f5ff32000430ef004e
:100d5c00b07380000080ea00b0738800f1ff3700a8
:100d6c000000fa00062eef00222eef003e2eef00c0
:100d7c005a2eef00762eef00f00120001070880044
:100d8c00d0ff2f00f07088000080eb00d07188003d
:100d9c000080eb00b0728800f0f92100907388009d
:100dac000c2eef00282eef00442eef00602eef00eb
:100dbc007c2eef000a2eef00262eef00422eef00c5
:100dcc005e2eef0000202000d0738800082eef006c
:100ddc00242eef00402eef005c2eef00782eef005b
:100dec00f001200000708800d0092000e07088001d
:100dfc00f00c2000c071880000c02200a072880096
:100e0c00f0002000807388000080fa0000000600cb
:100e1c000200fa00000f78000300370000fa2000ef
:100e2c00010020004f0007001e00780000f0a70012
:100e3c000000ea000000ea004f00de0000407800ed
:100e4c001e0fe9000004e000f4ff3a000080fa00f5
:100e5c00000006000200fa00000f780005003700c1
:100e6c0000082000010020003e00070001fe2f00ba
:100e7c001e8f40001e007800ff0f5000f8ff3e0050
:100e8c00030037004000200001002000350007005f
:100e9c001e00780000f0a7000000ea000000ea0045
:100eac004f00de00004078001e0fe9000004e00057
:100ebc00f4ff3a000080fa00000006000200fa007d
:100ecc00000f780021028000200f200000806000bd
:100edc001e007000200288000080fa00000006004e
:100eec000000fa00c3e8a8000000000000000000a9
:100efc000080fa00000006000000fa0098ff0700ce
:100f0c00320007002cff0700cffe0700f4ff07009c
:100f1c0000022000e9ff07000080fa000000060034
:020000040000fa
:100f2c000a100000200000008000000006100000e5
:100f3c000200000082000000ffff00000010000013
:100f4c0006000000800000002a10000002000000d3
:100f5c00800000000810000002000000800000006b
:040f6c000000000081
:020000040000fa
:100f7000f03fb1000180b10006003500ee0309002a
:100f800000000000403fb1000180b100fbff3d00c8
:100f90001000b000203fb0000200350000800900c2
:080fa000000000000000060043
:020000040000fa
:100fa8000200fa00000f78009e0078003180880067
:100fb800ffff37000000fa00a0002100800778003a
:100fc80020022100000188000080fa0000000600cd
:100fd8000000fa0001428000f0f82f000080600055
:100fe8000040a000004288000080fa0000000600cf
:020000040000fa
:020000040005f5
:047e0000ffffff0081
:020000040000fa
:020000040005f5
:047e2000ffffff0061
:020000040000fa
:020000040005f5
:047e30007fffff00d1
:020000040000fa
:020000040005f5
:047e3800bfffff0089
:020000040000fa
:020000040005f5
:047e40007f7fff0041
:020000040000fa
:020000040005f5
:047e4800ffffff0039
:020000040000fa
:020000040005f5
:047e5000dfffff0051
:020000040000fa
:020000040005f5
:047e58000000ff0027
:020000040000fa
:020000040005f5
:047e60000000ff001f
:020000040000fa
:020000040005f5
:047e68000000ff0017
:020000040000fa
:020000040005f5
:047e70000000ff000f
:020000040000fa
:020000040005f5
:047e7800ffffff0009
:020000040000fa
:020000040005f5
:047e8000fffcff0004
:020000040000fa
:020000040005f5
:047e8800ffffff00f9
:020000040000fa
:020000040005f5
:047ff800ffffff0088
:020000040000fa
:020000040100f9
:04300000ffffff00cf
:00000001FF
